{
  "_format": "hh-sol-artifact-1",
  "contractName": "ChicBoxNFT",
  "sourceName": "contracts/ChicBoxNFT.sol",
  "abi": [
    {
      "inputs": [
        {
          "internalType": "address",
          "name": "_vrfCoordinatorV2",
          "type": "address"
        },
        {
          "internalType": "uint64",
          "name": "_subscriptionId",
          "type": "uint64"
        },
        {
          "internalType": "bytes32",
          "name": "_gasLane",
          "type": "bytes32"
        },
        {
          "internalType": "uint32",
          "name": "_callbackGasLimit",
          "type": "uint32"
        },
        {
          "internalType": "uint256",
          "name": "_upkeepInterval",
          "type": "uint256"
        },
        {
          "internalType": "uint256",
          "name": "_nftLevelUpIntervalDays",
          "type": "uint256"
        },
        {
          "internalType": "uint256",
          "name": "_maxUserSupply",
          "type": "uint256"
        },
        {
          "internalType": "address",
          "name": "_chicTokenAddress",
          "type": "address"
        }
      ],
      "stateMutability": "nonpayable",
      "type": "constructor"
    },
    {
      "inputs": [
        {
          "internalType": "address",
          "name": "have",
          "type": "address"
        },
        {
          "internalType": "address",
          "name": "want",
          "type": "address"
        }
      ],
      "name": "OnlyCoordinatorCanFulfill",
      "type": "error"
    },
    {
      "anonymous": false,
      "inputs": [
        {
          "indexed": true,
          "internalType": "address",
          "name": "owner",
          "type": "address"
        },
        {
          "indexed": true,
          "internalType": "address",
          "name": "approved",
          "type": "address"
        },
        {
          "indexed": true,
          "internalType": "uint256",
          "name": "tokenId",
          "type": "uint256"
        }
      ],
      "name": "Approval",
      "type": "event"
    },
    {
      "anonymous": false,
      "inputs": [
        {
          "indexed": true,
          "internalType": "address",
          "name": "owner",
          "type": "address"
        },
        {
          "indexed": true,
          "internalType": "address",
          "name": "operator",
          "type": "address"
        },
        {
          "indexed": false,
          "internalType": "bool",
          "name": "approved",
          "type": "bool"
        }
      ],
      "name": "ApprovalForAll",
      "type": "event"
    },
    {
      "anonymous": false,
      "inputs": [
        {
          "indexed": true,
          "internalType": "address",
          "name": "previousOwner",
          "type": "address"
        },
        {
          "indexed": true,
          "internalType": "address",
          "name": "newOwner",
          "type": "address"
        }
      ],
      "name": "OwnershipTransferred",
      "type": "event"
    },
    {
      "anonymous": false,
      "inputs": [
        {
          "indexed": false,
          "internalType": "uint256",
          "name": "requestId",
          "type": "uint256"
        }
      ],
      "name": "RandomWordsRequested",
      "type": "event"
    },
    {
      "anonymous": false,
      "inputs": [
        {
          "indexed": true,
          "internalType": "address",
          "name": "from",
          "type": "address"
        },
        {
          "indexed": true,
          "internalType": "address",
          "name": "to",
          "type": "address"
        },
        {
          "indexed": true,
          "internalType": "uint256",
          "name": "tokenId",
          "type": "uint256"
        }
      ],
      "name": "Transfer",
      "type": "event"
    },
    {
      "inputs": [
        {
          "internalType": "address",
          "name": "to",
          "type": "address"
        },
        {
          "internalType": "uint256",
          "name": "tokenId",
          "type": "uint256"
        }
      ],
      "name": "approve",
      "outputs": [],
      "stateMutability": "nonpayable",
      "type": "function"
    },
    {
      "inputs": [
        {
          "internalType": "address",
          "name": "owner",
          "type": "address"
        }
      ],
      "name": "balanceOf",
      "outputs": [
        {
          "internalType": "uint256",
          "name": "",
          "type": "uint256"
        }
      ],
      "stateMutability": "view",
      "type": "function"
    },
    {
      "inputs": [
        {
          "internalType": "bytes",
          "name": "",
          "type": "bytes"
        }
      ],
      "name": "checkUpkeep",
      "outputs": [
        {
          "internalType": "bool",
          "name": "upkeepNeeded",
          "type": "bool"
        },
        {
          "internalType": "bytes",
          "name": "",
          "type": "bytes"
        }
      ],
      "stateMutability": "view",
      "type": "function"
    },
    {
      "inputs": [
        {
          "internalType": "address",
          "name": "_to",
          "type": "address"
        }
      ],
      "name": "devMint",
      "outputs": [],
      "stateMutability": "nonpayable",
      "type": "function"
    },
    {
      "inputs": [
        {
          "internalType": "uint256",
          "name": "tokenId",
          "type": "uint256"
        }
      ],
      "name": "getApproved",
      "outputs": [
        {
          "internalType": "address",
          "name": "",
          "type": "address"
        }
      ],
      "stateMutability": "view",
      "type": "function"
    },
    {
      "inputs": [],
      "name": "getMaxUserSupply",
      "outputs": [
        {
          "internalType": "uint256",
          "name": "",
          "type": "uint256"
        }
      ],
      "stateMutability": "view",
      "type": "function"
    },
    {
      "inputs": [
        {
          "internalType": "uint256",
          "name": "_tokenId",
          "type": "uint256"
        }
      ],
      "name": "getTimeLeftTillNextLevelUp",
      "outputs": [
        {
          "internalType": "uint256",
          "name": "",
          "type": "uint256"
        }
      ],
      "stateMutability": "view",
      "type": "function"
    },
    {
      "inputs": [],
      "name": "getTimeTillNextUpkeep",
      "outputs": [
        {
          "internalType": "int256",
          "name": "",
          "type": "int256"
        }
      ],
      "stateMutability": "view",
      "type": "function"
    },
    {
      "inputs": [],
      "name": "getTokenCounter",
      "outputs": [
        {
          "internalType": "uint256",
          "name": "",
          "type": "uint256"
        }
      ],
      "stateMutability": "view",
      "type": "function"
    },
    {
      "inputs": [
        {
          "internalType": "uint256",
          "name": "_tokenId",
          "type": "uint256"
        }
      ],
      "name": "getTokenDetails",
      "outputs": [
        {
          "components": [
            {
              "internalType": "uint256",
              "name": "creationTimestamp",
              "type": "uint256"
            },
            {
              "internalType": "uint256",
              "name": "randomSeed",
              "type": "uint256"
            },
            {
              "internalType": "bool",
              "name": "isDevToken",
              "type": "bool"
            }
          ],
          "internalType": "struct ChicBoxNFT.TokenDetail",
          "name": "",
          "type": "tuple"
        }
      ],
      "stateMutability": "view",
      "type": "function"
    },
    {
      "inputs": [
        {
          "internalType": "address",
          "name": "owner",
          "type": "address"
        },
        {
          "internalType": "address",
          "name": "operator",
          "type": "address"
        }
      ],
      "name": "isApprovedForAll",
      "outputs": [
        {
          "internalType": "bool",
          "name": "",
          "type": "bool"
        }
      ],
      "stateMutability": "view",
      "type": "function"
    },
    {
      "inputs": [],
      "name": "name",
      "outputs": [
        {
          "internalType": "string",
          "name": "",
          "type": "string"
        }
      ],
      "stateMutability": "view",
      "type": "function"
    },
    {
      "inputs": [],
      "name": "owner",
      "outputs": [
        {
          "internalType": "address",
          "name": "",
          "type": "address"
        }
      ],
      "stateMutability": "view",
      "type": "function"
    },
    {
      "inputs": [
        {
          "internalType": "uint256",
          "name": "tokenId",
          "type": "uint256"
        }
      ],
      "name": "ownerOf",
      "outputs": [
        {
          "internalType": "address",
          "name": "",
          "type": "address"
        }
      ],
      "stateMutability": "view",
      "type": "function"
    },
    {
      "inputs": [
        {
          "internalType": "bytes",
          "name": "",
          "type": "bytes"
        }
      ],
      "name": "performUpkeep",
      "outputs": [],
      "stateMutability": "nonpayable",
      "type": "function"
    },
    {
      "inputs": [
        {
          "internalType": "uint256",
          "name": "requestId",
          "type": "uint256"
        },
        {
          "internalType": "uint256[]",
          "name": "randomWords",
          "type": "uint256[]"
        }
      ],
      "name": "rawFulfillRandomWords",
      "outputs": [],
      "stateMutability": "nonpayable",
      "type": "function"
    },
    {
      "inputs": [],
      "name": "renounceOwnership",
      "outputs": [],
      "stateMutability": "nonpayable",
      "type": "function"
    },
    {
      "inputs": [],
      "name": "s_randomWord",
      "outputs": [
        {
          "internalType": "uint256",
          "name": "",
          "type": "uint256"
        }
      ],
      "stateMutability": "view",
      "type": "function"
    },
    {
      "inputs": [
        {
          "internalType": "address",
          "name": "_to",
          "type": "address"
        }
      ],
      "name": "safeMint",
      "outputs": [],
      "stateMutability": "nonpayable",
      "type": "function"
    },
    {
      "inputs": [
        {
          "internalType": "address",
          "name": "from",
          "type": "address"
        },
        {
          "internalType": "address",
          "name": "to",
          "type": "address"
        },
        {
          "internalType": "uint256",
          "name": "tokenId",
          "type": "uint256"
        }
      ],
      "name": "safeTransferFrom",
      "outputs": [],
      "stateMutability": "nonpayable",
      "type": "function"
    },
    {
      "inputs": [
        {
          "internalType": "address",
          "name": "from",
          "type": "address"
        },
        {
          "internalType": "address",
          "name": "to",
          "type": "address"
        },
        {
          "internalType": "uint256",
          "name": "tokenId",
          "type": "uint256"
        },
        {
          "internalType": "bytes",
          "name": "data",
          "type": "bytes"
        }
      ],
      "name": "safeTransferFrom",
      "outputs": [],
      "stateMutability": "nonpayable",
      "type": "function"
    },
    {
      "inputs": [
        {
          "internalType": "address",
          "name": "operator",
          "type": "address"
        },
        {
          "internalType": "bool",
          "name": "approved",
          "type": "bool"
        }
      ],
      "name": "setApprovalForAll",
      "outputs": [],
      "stateMutability": "nonpayable",
      "type": "function"
    },
    {
      "inputs": [
        {
          "internalType": "uint256",
          "name": "_newInterval",
          "type": "uint256"
        }
      ],
      "name": "setUpkeepInterval",
      "outputs": [],
      "stateMutability": "nonpayable",
      "type": "function"
    },
    {
      "inputs": [
        {
          "internalType": "bytes4",
          "name": "interfaceId",
          "type": "bytes4"
        }
      ],
      "name": "supportsInterface",
      "outputs": [
        {
          "internalType": "bool",
          "name": "",
          "type": "bool"
        }
      ],
      "stateMutability": "view",
      "type": "function"
    },
    {
      "inputs": [],
      "name": "symbol",
      "outputs": [
        {
          "internalType": "string",
          "name": "",
          "type": "string"
        }
      ],
      "stateMutability": "view",
      "type": "function"
    },
    {
      "inputs": [
        {
          "internalType": "uint256",
          "name": "_tokenId",
          "type": "uint256"
        }
      ],
      "name": "tokenURI",
      "outputs": [
        {
          "internalType": "string",
          "name": "",
          "type": "string"
        }
      ],
      "stateMutability": "view",
      "type": "function"
    },
    {
      "inputs": [
        {
          "internalType": "address",
          "name": "from",
          "type": "address"
        },
        {
          "internalType": "address",
          "name": "to",
          "type": "address"
        },
        {
          "internalType": "uint256",
          "name": "tokenId",
          "type": "uint256"
        }
      ],
      "name": "transferFrom",
      "outputs": [],
      "stateMutability": "nonpayable",
      "type": "function"
    },
    {
      "inputs": [
        {
          "internalType": "address",
          "name": "newOwner",
          "type": "address"
        }
      ],
      "name": "transferOwnership",
      "outputs": [],
      "stateMutability": "nonpayable",
      "type": "function"
    }
  ],
  "bytecode": "0x61018060405260405180608001604052806040518060800160405280604a815260200162004985604a913981526020016040518060800160405280604a8152602001620048a7604a913981526020016040518060800160405280604a8152602001620048f1604a913981526020016040518060800160405280604a81526020016200493b604a9139815250600b9060046200009c92919062000356565b50348015620000aa57600080fd5b50604051620049cf380380620049cf8339818101604052810190620000d09190620005a9565b876040518060400160405280601081526020017f44796e616d69632043686963204e4654000000000000000000000000000000008152506040518060400160405280600581526020017f644348494300000000000000000000000000000000000000000000000000000081525081600090816200014e9190620008e2565b508060019081620001609190620008e2565b5050508073ffffffffffffffffffffffffffffffffffffffff1660808173ffffffffffffffffffffffffffffffffffffffff168152505050620001b8620001ac6200028860201b60201c565b6200029060201b60201c565b8560e081815250508667ffffffffffffffff1660c08167ffffffffffffffff16815250508463ffffffff166101008163ffffffff16815250508773ffffffffffffffffffffffffffffffffffffffff1660a08173ffffffffffffffffffffffffffffffffffffffff16815250508360098190555082610140818152505042600a819055508161012081815250508073ffffffffffffffffffffffffffffffffffffffff166101608173ffffffffffffffffffffffffffffffffffffffff16815250505050505050505050620009c9565b600033905090565b6000600660009054906101000a900473ffffffffffffffffffffffffffffffffffffffff16905081600660006101000a81548173ffffffffffffffffffffffffffffffffffffffff021916908373ffffffffffffffffffffffffffffffffffffffff1602179055508173ffffffffffffffffffffffffffffffffffffffff168173ffffffffffffffffffffffffffffffffffffffff167f8be0079c531659141344cd1fd0a4f28419497f9722a3daafe3b4186f6b6457e060405160405180910390a35050565b828054828255906000526020600020908101928215620003a3579160200282015b82811115620003a2578251829081620003919190620008e2565b509160200191906001019062000377565b5b509050620003b29190620003b6565b5090565b5b80821115620003da5760008181620003d09190620003de565b50600101620003b7565b5090565b508054620003ec90620006db565b6000825580601f1062000400575062000421565b601f01602090049060005260206000209081019062000420919062000424565b5b50565b5b808211156200043f57600081600090555060010162000425565b5090565b600080fd5b600073ffffffffffffffffffffffffffffffffffffffff82169050919050565b6000620004758262000448565b9050919050565b620004878162000468565b81146200049357600080fd5b50565b600081519050620004a7816200047c565b92915050565b600067ffffffffffffffff82169050919050565b620004cc81620004ad565b8114620004d857600080fd5b50565b600081519050620004ec81620004c1565b92915050565b6000819050919050565b6200050781620004f2565b81146200051357600080fd5b50565b6000815190506200052781620004fc565b92915050565b600063ffffffff82169050919050565b62000548816200052d565b81146200055457600080fd5b50565b60008151905062000568816200053d565b92915050565b6000819050919050565b62000583816200056e565b81146200058f57600080fd5b50565b600081519050620005a38162000578565b92915050565b600080600080600080600080610100898b031215620005cd57620005cc62000443565b5b6000620005dd8b828c0162000496565b9850506020620005f08b828c01620004db565b9750506040620006038b828c0162000516565b9650506060620006168b828c0162000557565b9550506080620006298b828c0162000592565b94505060a06200063c8b828c0162000592565b93505060c06200064f8b828c0162000592565b92505060e0620006628b828c0162000496565b9150509295985092959890939650565b600081519050919050565b7f4e487b7100000000000000000000000000000000000000000000000000000000600052604160045260246000fd5b7f4e487b7100000000000000000000000000000000000000000000000000000000600052602260045260246000fd5b60006002820490506001821680620006f457607f821691505b6020821081036200070a5762000709620006ac565b5b50919050565b60008190508160005260206000209050919050565b60006020601f8301049050919050565b600082821b905092915050565b600060088302620007747fffffffffffffffffffffffffffffffffffffffffffffffffffffffffffffffff8262000735565b62000780868362000735565b95508019841693508086168417925050509392505050565b6000819050919050565b6000620007c3620007bd620007b7846200056e565b62000798565b6200056e565b9050919050565b6000819050919050565b620007df83620007a2565b620007f7620007ee82620007ca565b84845462000742565b825550505050565b600090565b6200080e620007ff565b6200081b818484620007d4565b505050565b5b8181101562000843576200083760008262000804565b60018101905062000821565b5050565b601f82111562000892576200085c8162000710565b620008678462000725565b8101602085101562000877578190505b6200088f620008868562000725565b83018262000820565b50505b505050565b600082821c905092915050565b6000620008b76000198460080262000897565b1980831691505092915050565b6000620008d28383620008a4565b9150826002028217905092915050565b620008ed8262000672565b67ffffffffffffffff8111156200090957620009086200067d565b5b620009158254620006db565b6200092282828562000847565b600060209050601f8311600181146200095a576000841562000945578287015190505b620009518582620008c4565b865550620009c1565b601f1984166200096a8662000710565b60005b8281101562000994578489015182556001820191506020850194506020810190506200096d565b86831015620009b45784890151620009b0601f891682620008a4565b8355505b6001600288020188555050505b505050505050565b60805160a05160c05160e05161010051610120516101405161016051613e4762000a60600039600081816109f70152610a9e015260008181610f2701528181610f8501528181611c9301528181611ce50152611d30015260008181610995015261130d01526000610d8a01526000610d4601526000610d6701526000610d0a01526000818161085d01526108b10152613e476000f3fe608060405234801561001057600080fd5b50600436106101c45760003560e01c80636e04ff0d116100f9578063ab097efa11610097578063c87b56dd11610071578063c87b56dd146104f0578063e985e9c514610520578063f2fde38b14610550578063fd210fd91461056c576101c4565b8063ab097efa14610486578063b88d4fde146104a4578063c1e03728146104c0576101c4565b806372e4c9f6116100d357806372e4c9f6146104125780638da5cb5b1461042e57806395d89b411461044c578063a22cb4651461046a576101c4565b80636e04ff0d146103a757806370a08231146103d8578063715018a614610408576101c4565b806341ee05f7116101665780634ae33052116101405780634ae330521461030b5780635592973a146103295780636352211e146103595780636e02007d14610389576101c4565b806341ee05f7146102b757806342842e0e146102d35780634585e33b146102ef576101c4565b8063095ea7b3116101a2578063095ea7b3146102475780631fe543e31461026357806323b872dd1461027f57806340d097c31461029b576101c4565b806301ffc9a7146101c957806306fdde03146101f9578063081812fc14610217575b600080fd5b6101e360048036038101906101de919061258b565b61058a565b6040516101f091906125d3565b60405180910390f35b61020161066c565b60405161020e919061267e565b60405180910390f35b610231600480360381019061022c91906126d6565b6106fe565b60405161023e9190612744565b60405180910390f35b610261600480360381019061025c919061278b565b610744565b005b61027d60048036038101906102789190612913565b61085b565b005b6102996004803603810190610294919061296f565b61091b565b005b6102b560048036038101906102b091906129c2565b61097b565b005b6102d160048036038101906102cc91906129c2565b610c44565b005b6102ed60048036038101906102e8919061296f565b610cbc565b005b61030960048036038101906103049190612a4a565b610cdc565b005b610313610e4e565b6040516103209190612ab0565b60405180910390f35b610343600480360381019061033e91906126d6565b610e70565b6040516103509190612ada565b60405180910390f35b610373600480360381019061036e91906126d6565b610fd7565b6040516103809190612744565b60405180910390f35b61039161105d565b60405161039e9190612ada565b60405180910390f35b6103c160048036038101906103bc9190612baa565b61106e565b6040516103cf929190612c48565b60405180910390f35b6103f260048036038101906103ed91906129c2565b611117565b6040516103ff9190612ada565b60405180910390f35b6104106111ce565b005b61042c600480360381019061042791906126d6565b6111e2565b005b610436611237565b6040516104439190612744565b60405180910390f35b610454611261565b604051610461919061267e565b60405180910390f35b610484600480360381019061047f9190612ca4565b6112f3565b005b61048e611309565b60405161049b9190612ada565b60405180910390f35b6104be60048036038101906104b99190612ce4565b611331565b005b6104da60048036038101906104d591906126d6565b611393565b6040516104e79190612dc7565b60405180910390f35b61050a600480360381019061050591906126d6565b611447565b604051610517919061267e565b60405180910390f35b61053a60048036038101906105359190612de2565b6114ff565b60405161054791906125d3565b60405180910390f35b61056a600480360381019061056591906129c2565b611593565b005b610574611616565b6040516105819190612ada565b60405180910390f35b60007f80ac58cd000000000000000000000000000000000000000000000000000000007bffffffffffffffffffffffffffffffffffffffffffffffffffffffff1916827bffffffffffffffffffffffffffffffffffffffffffffffffffffffff1916148061065557507f5b5e139f000000000000000000000000000000000000000000000000000000007bffffffffffffffffffffffffffffffffffffffffffffffffffffffff1916827bffffffffffffffffffffffffffffffffffffffffffffffffffffffff1916145b8061066557506106648261161c565b5b9050919050565b60606000805461067b90612e51565b80601f01602080910402602001604051908101604052809291908181526020018280546106a790612e51565b80156106f45780601f106106c9576101008083540402835291602001916106f4565b820191906000526020600020905b8154815290600101906020018083116106d757829003601f168201915b5050505050905090565b600061070982611686565b6004600083815260200190815260200160002060009054906101000a900473ffffffffffffffffffffffffffffffffffffffff169050919050565b600061074f82610fd7565b90508073ffffffffffffffffffffffffffffffffffffffff168373ffffffffffffffffffffffffffffffffffffffff16036107bf576040517f08c379a00000000000000000000000000000000000000000000000000000000081526004016107b690612ef4565b60405180910390fd5b8073ffffffffffffffffffffffffffffffffffffffff166107de6116d1565b73ffffffffffffffffffffffffffffffffffffffff16148061080d575061080c816108076116d1565b6114ff565b5b61084c576040517f08c379a000000000000000000000000000000000000000000000000000000000815260040161084390612f86565b60405180910390fd5b61085683836116d9565b505050565b7f000000000000000000000000000000000000000000000000000000000000000073ffffffffffffffffffffffffffffffffffffffff163373ffffffffffffffffffffffffffffffffffffffff161461090d57337f00000000000000000000000000000000000000000000000000000000000000006040517f1cf993f4000000000000000000000000000000000000000000000000000000008152600401610904929190612fa6565b60405180910390fd5b6109178282611792565b5050565b61092c6109266116d1565b826117b8565b61096b576040517f08c379a000000000000000000000000000000000000000000000000000000000815260040161096290613041565b60405180910390fd5b61097683838361184d565b505050565b60006109876007611b46565b90506109936007611b54565b7f000000000000000000000000000000000000000000000000000000000000000081106109f5576040517f08c379a00000000000000000000000000000000000000000000000000000000081526004016109ec906130d3565b60405180910390fd5b7f000000000000000000000000000000000000000000000000000000000000000073ffffffffffffffffffffffffffffffffffffffff1663313ce5676040518163ffffffff1660e01b8152600401602060405180830381865afa158015610a60573d6000803e3d6000fd5b505050506040513d601f19601f82011682018060405250810190610a84919061312c565b600a610a9091906132bb565b6001610a9c9190613306565b7f000000000000000000000000000000000000000000000000000000000000000073ffffffffffffffffffffffffffffffffffffffff166370a08231846040518263ffffffff1660e01b8152600401610af59190612744565b602060405180830381865afa158015610b12573d6000803e3d6000fd5b505050506040513d601f19601f82011682018060405250810190610b36919061335d565b1015610b77576040517f08c379a0000000000000000000000000000000000000000000000000000000008152600401610b6e906133fc565b60405180910390fd5b42600c6000838152602001908152602001600020600001819055506103e860085442834486604051602001610bb0959493929190613485565b6040516020818303038152906040528051906020012060001c610bd39190613513565b600c6000838152602001908152602001600020600101819055506000600c600083815260200190815260200160002060020160006101000a81548160ff021916908315150217905550600a60086000828254610c2f9190613544565b92505081905550610c408282611b6a565b5050565b610c4c611b88565b6000610c586007611b46565b9050610c646007611b54565b42600c6000838152602001908152602001600020600001819055506001600c600083815260200190815260200160002060020160006101000a81548160ff021916908315150217905550610cb88282611b6a565b5050565b610cd783838360405180602001604052806000815250611331565b505050565b6000610cf66040518060200160405280600081525061106e565b50905042600a819055508015610e495760007f000000000000000000000000000000000000000000000000000000000000000073ffffffffffffffffffffffffffffffffffffffff16635d3b1d307f00000000000000000000000000000000000000000000000000000000000000007f000000000000000000000000000000000000000000000000000000000000000060037f000000000000000000000000000000000000000000000000000000000000000060016040518663ffffffff1660e01b8152600401610dcb9594939291906135ed565b6020604051808303816000875af1158015610dea573d6000803e3d6000fd5b505050506040513d601f19601f82011682018060405250810190610e0e919061335d565b90507f7fcb39adb5b831fa03838de8ac6af690f48e3339ee8300eff17b1cd8035054df81604051610e3f9190612ada565b60405180910390a1505b505050565b6000600a5442610e5e9190613640565b600954610e6b9190613640565b905090565b6000808210158015610e8a5750610e876007611b46565b82105b610ec9576040517f08c379a0000000000000000000000000000000000000000000000000000000008152600401610ec0906136e6565b60405180910390fd5b6002610ed483611c06565b10610f14576040517f08c379a0000000000000000000000000000000000000000000000000000000008152600401610f0b90613778565b60405180910390fd5b6000610f1f83611c06565b14610f8257427f00000000000000000000000000000000000000000000000000000000000000006002610f529190613306565b600c600085815260200190815260200160002060000154610f739190613798565b610f7d9190613640565b610fd0565b427f0000000000000000000000000000000000000000000000000000000000000000600c600085815260200190815260200160002060000154610fc59190613798565b610fcf9190613640565b5b9050919050565b600080610fe383611dc2565b9050600073ffffffffffffffffffffffffffffffffffffffff168173ffffffffffffffffffffffffffffffffffffffff1603611054576040517f08c379a000000000000000000000000000000000000000000000000000000000815260040161104b90613818565b60405180910390fd5b80915050919050565b60006110696007611b46565b905090565b6000606060008061107f6007611b46565b1190506000600954600a54426110959190613640565b119050600060026110ba60016110ab6007611b46565b6110b59190613640565b611c06565b101590508180156110c85750825b80156110d2575080155b9450846040518060400160405280600381526020017f307830000000000000000000000000000000000000000000000000000000000081525094509450505050915091565b60008073ffffffffffffffffffffffffffffffffffffffff168273ffffffffffffffffffffffffffffffffffffffff1603611187576040517f08c379a000000000000000000000000000000000000000000000000000000000815260040161117e906138aa565b60405180910390fd5b600360008373ffffffffffffffffffffffffffffffffffffffff1673ffffffffffffffffffffffffffffffffffffffff168152602001908152602001600020549050919050565b6111d6611b88565b6111e06000611dff565b565b6111ea611b88565b601e811161122d576040517f08c379a00000000000000000000000000000000000000000000000000000000081526004016112249061393c565b60405180910390fd5b8060098190555050565b6000600660009054906101000a900473ffffffffffffffffffffffffffffffffffffffff16905090565b60606001805461127090612e51565b80601f016020809104026020016040519081016040528092919081815260200182805461129c90612e51565b80156112e95780601f106112be576101008083540402835291602001916112e9565b820191906000526020600020905b8154815290600101906020018083116112cc57829003601f168201915b5050505050905090565b6113056112fe6116d1565b8383611ec5565b5050565b60007f0000000000000000000000000000000000000000000000000000000000000000905090565b61134261133c6116d1565b836117b8565b611381576040517f08c379a000000000000000000000000000000000000000000000000000000000815260040161137890613041565b60405180910390fd5b61138d84848484612031565b50505050565b61139b6124fc565b600082101580156113b457506113b16007611b46565b82105b6113f3576040517f08c379a00000000000000000000000000000000000000000000000000000000081526004016113ea906136e6565b60405180910390fd5b600c600083815260200190815260200160002060405180606001604052908160008201548152602001600182015481526020016002820160009054906101000a900460ff1615151515815250509050919050565b6060600b61145483611c06565b815481106114655761146461395c565b5b90600052602060002001805461147a90612e51565b80601f01602080910402602001604051908101604052809291908181526020018280546114a690612e51565b80156114f35780601f106114c8576101008083540402835291602001916114f3565b820191906000526020600020905b8154815290600101906020018083116114d657829003601f168201915b50505050509050919050565b6000600560008473ffffffffffffffffffffffffffffffffffffffff1673ffffffffffffffffffffffffffffffffffffffff16815260200190815260200160002060008373ffffffffffffffffffffffffffffffffffffffff1673ffffffffffffffffffffffffffffffffffffffff16815260200190815260200160002060009054906101000a900460ff16905092915050565b61159b611b88565b600073ffffffffffffffffffffffffffffffffffffffff168173ffffffffffffffffffffffffffffffffffffffff160361160a576040517f08c379a0000000000000000000000000000000000000000000000000000000008152600401611601906139fd565b60405180910390fd5b61161381611dff565b50565b60085481565b60007f01ffc9a7000000000000000000000000000000000000000000000000000000007bffffffffffffffffffffffffffffffffffffffffffffffffffffffff1916827bffffffffffffffffffffffffffffffffffffffffffffffffffffffff1916149050919050565b61168f8161208d565b6116ce576040517f08c379a00000000000000000000000000000000000000000000000000000000081526004016116c590613818565b60405180910390fd5b50565b600033905090565b816004600083815260200190815260200160002060006101000a81548173ffffffffffffffffffffffffffffffffffffffff021916908373ffffffffffffffffffffffffffffffffffffffff160217905550808273ffffffffffffffffffffffffffffffffffffffff1661174c83610fd7565b73ffffffffffffffffffffffffffffffffffffffff167f8c5be1e5ebec7d5bd14f71427d1e84f3dd0314c0f7b2291e5b200ac8c7c3b92560405160405180910390a45050565b806000815181106117a6576117a561395c565b5b60200260200101516008819055505050565b6000806117c483610fd7565b90508073ffffffffffffffffffffffffffffffffffffffff168473ffffffffffffffffffffffffffffffffffffffff161480611806575061180581856114ff565b5b8061184457508373ffffffffffffffffffffffffffffffffffffffff1661182c846106fe565b73ffffffffffffffffffffffffffffffffffffffff16145b91505092915050565b8273ffffffffffffffffffffffffffffffffffffffff1661186d82610fd7565b73ffffffffffffffffffffffffffffffffffffffff16146118c3576040517f08c379a00000000000000000000000000000000000000000000000000000000081526004016118ba90613a8f565b60405180910390fd5b600073ffffffffffffffffffffffffffffffffffffffff168273ffffffffffffffffffffffffffffffffffffffff1603611932576040517f08c379a000000000000000000000000000000000000000000000000000000000815260040161192990613b21565b60405180910390fd5b61193f83838360016120ce565b8273ffffffffffffffffffffffffffffffffffffffff1661195f82610fd7565b73ffffffffffffffffffffffffffffffffffffffff16146119b5576040517f08c379a00000000000000000000000000000000000000000000000000000000081526004016119ac90613a8f565b60405180910390fd5b6004600082815260200190815260200160002060006101000a81549073ffffffffffffffffffffffffffffffffffffffff02191690556001600360008573ffffffffffffffffffffffffffffffffffffffff1673ffffffffffffffffffffffffffffffffffffffff168152602001908152602001600020600082825403925050819055506001600360008473ffffffffffffffffffffffffffffffffffffffff1673ffffffffffffffffffffffffffffffffffffffff16815260200190815260200160002060008282540192505081905550816002600083815260200190815260200160002060006101000a81548173ffffffffffffffffffffffffffffffffffffffff021916908373ffffffffffffffffffffffffffffffffffffffff160217905550808273ffffffffffffffffffffffffffffffffffffffff168473ffffffffffffffffffffffffffffffffffffffff167fddf252ad1be2c89b69c2b068fc378daa952ba7f163c4a11628f55a4df523b3ef60405160405180910390a4611b4183838360016120d4565b505050565b600081600001549050919050565b6001816000016000828254019250508190555050565b611b848282604051806020016040528060008152506120da565b5050565b611b906116d1565b73ffffffffffffffffffffffffffffffffffffffff16611bae611237565b73ffffffffffffffffffffffffffffffffffffffff1614611c04576040517f08c379a0000000000000000000000000000000000000000000000000000000008152600401611bfb90613b8d565b60405180910390fd5b565b6000808210158015611c205750611c1d6007611b46565b82105b611c5f576040517f08c379a0000000000000000000000000000000000000000000000000000000008152600401611c56906136e6565b60405180910390fd5b600c600083815260200190815260200160002060020160009054906101000a900460ff1615611c915760029050611dbd565b7f0000000000000000000000000000000000000000000000000000000000000000600c600084815260200190815260200160002060000154611cd39190613798565b421015611ce35760009050611dbd565b7f0000000000000000000000000000000000000000000000000000000000000000600c600084815260200190815260200160002060000154611d259190613798565b42118015611d8057507f00000000000000000000000000000000000000000000000000000000000000006002611d5b9190613306565b600c600084815260200190815260200160002060000154611d7c9190613798565b4211155b15611d8e5760019050611dbd565b6102bc600c60008481526020019081526020016000206001015410611db4576003611db7565b60025b60ff1690505b919050565b60006002600083815260200190815260200160002060009054906101000a900473ffffffffffffffffffffffffffffffffffffffff169050919050565b6000600660009054906101000a900473ffffffffffffffffffffffffffffffffffffffff16905081600660006101000a81548173ffffffffffffffffffffffffffffffffffffffff021916908373ffffffffffffffffffffffffffffffffffffffff1602179055508173ffffffffffffffffffffffffffffffffffffffff168173ffffffffffffffffffffffffffffffffffffffff167f8be0079c531659141344cd1fd0a4f28419497f9722a3daafe3b4186f6b6457e060405160405180910390a35050565b8173ffffffffffffffffffffffffffffffffffffffff168373ffffffffffffffffffffffffffffffffffffffff1603611f33576040517f08c379a0000000000000000000000000000000000000000000000000000000008152600401611f2a90613bf9565b60405180910390fd5b80600560008573ffffffffffffffffffffffffffffffffffffffff1673ffffffffffffffffffffffffffffffffffffffff16815260200190815260200160002060008473ffffffffffffffffffffffffffffffffffffffff1673ffffffffffffffffffffffffffffffffffffffff16815260200190815260200160002060006101000a81548160ff0219169083151502179055508173ffffffffffffffffffffffffffffffffffffffff168373ffffffffffffffffffffffffffffffffffffffff167f17307eab39ab6107e8899845ad3d59bd9653f200f220920489ca2b5937696c318360405161202491906125d3565b60405180910390a3505050565b61203c84848461184d565b61204884848484612135565b612087576040517f08c379a000000000000000000000000000000000000000000000000000000000815260040161207e90613c8b565b60405180910390fd5b50505050565b60008073ffffffffffffffffffffffffffffffffffffffff166120af83611dc2565b73ffffffffffffffffffffffffffffffffffffffff1614159050919050565b50505050565b50505050565b6120e483836122bc565b6120f16000848484612135565b612130576040517f08c379a000000000000000000000000000000000000000000000000000000000815260040161212790613c8b565b60405180910390fd5b505050565b60006121568473ffffffffffffffffffffffffffffffffffffffff166124d9565b156122af578373ffffffffffffffffffffffffffffffffffffffff1663150b7a0261217f6116d1565b8786866040518563ffffffff1660e01b81526004016121a19493929190613cab565b6020604051808303816000875af19250505080156121dd57506040513d601f19601f820116820180604052508101906121da9190613d0c565b60015b61225f573d806000811461220d576040519150601f19603f3d011682016040523d82523d6000602084013e612212565b606091505b506000815103612257576040517f08c379a000000000000000000000000000000000000000000000000000000000815260040161224e90613c8b565b60405180910390fd5b805181602001fd5b63150b7a0260e01b7bffffffffffffffffffffffffffffffffffffffffffffffffffffffff1916817bffffffffffffffffffffffffffffffffffffffffffffffffffffffff1916149150506122b4565b600190505b949350505050565b600073ffffffffffffffffffffffffffffffffffffffff168273ffffffffffffffffffffffffffffffffffffffff160361232b576040517f08c379a000000000000000000000000000000000000000000000000000000000815260040161232290613d85565b60405180910390fd5b6123348161208d565b15612374576040517f08c379a000000000000000000000000000000000000000000000000000000000815260040161236b90613df1565b60405180910390fd5b6123826000838360016120ce565b61238b8161208d565b156123cb576040517f08c379a00000000000000000000000000000000000000000000000000000000081526004016123c290613df1565b60405180910390fd5b6001600360008473ffffffffffffffffffffffffffffffffffffffff1673ffffffffffffffffffffffffffffffffffffffff16815260200190815260200160002060008282540192505081905550816002600083815260200190815260200160002060006101000a81548173ffffffffffffffffffffffffffffffffffffffff021916908373ffffffffffffffffffffffffffffffffffffffff160217905550808273ffffffffffffffffffffffffffffffffffffffff16600073ffffffffffffffffffffffffffffffffffffffff167fddf252ad1be2c89b69c2b068fc378daa952ba7f163c4a11628f55a4df523b3ef60405160405180910390a46124d56000838360016120d4565b5050565b6000808273ffffffffffffffffffffffffffffffffffffffff163b119050919050565b604051806060016040528060008152602001600081526020016000151581525090565b6000604051905090565b600080fd5b600080fd5b60007fffffffff0000000000000000000000000000000000000000000000000000000082169050919050565b61256881612533565b811461257357600080fd5b50565b6000813590506125858161255f565b92915050565b6000602082840312156125a1576125a0612529565b5b60006125af84828501612576565b91505092915050565b60008115159050919050565b6125cd816125b8565b82525050565b60006020820190506125e860008301846125c4565b92915050565b600081519050919050565b600082825260208201905092915050565b60005b8381101561262857808201518184015260208101905061260d565b60008484015250505050565b6000601f19601f8301169050919050565b6000612650826125ee565b61265a81856125f9565b935061266a81856020860161260a565b61267381612634565b840191505092915050565b600060208201905081810360008301526126988184612645565b905092915050565b6000819050919050565b6126b3816126a0565b81146126be57600080fd5b50565b6000813590506126d0816126aa565b92915050565b6000602082840312156126ec576126eb612529565b5b60006126fa848285016126c1565b91505092915050565b600073ffffffffffffffffffffffffffffffffffffffff82169050919050565b600061272e82612703565b9050919050565b61273e81612723565b82525050565b60006020820190506127596000830184612735565b92915050565b61276881612723565b811461277357600080fd5b50565b6000813590506127858161275f565b92915050565b600080604083850312156127a2576127a1612529565b5b60006127b085828601612776565b92505060206127c1858286016126c1565b9150509250929050565b600080fd5b7f4e487b7100000000000000000000000000000000000000000000000000000000600052604160045260246000fd5b61280882612634565b810181811067ffffffffffffffff82111715612827576128266127d0565b5b80604052505050565b600061283a61251f565b905061284682826127ff565b919050565b600067ffffffffffffffff821115612866576128656127d0565b5b602082029050602081019050919050565b600080fd5b600061288f61288a8461284b565b612830565b905080838252602082019050602084028301858111156128b2576128b1612877565b5b835b818110156128db57806128c788826126c1565b8452602084019350506020810190506128b4565b5050509392505050565b600082601f8301126128fa576128f96127cb565b5b813561290a84826020860161287c565b91505092915050565b6000806040838503121561292a57612929612529565b5b6000612938858286016126c1565b925050602083013567ffffffffffffffff8111156129595761295861252e565b5b612965858286016128e5565b9150509250929050565b60008060006060848603121561298857612987612529565b5b600061299686828701612776565b93505060206129a786828701612776565b92505060406129b8868287016126c1565b9150509250925092565b6000602082840312156129d8576129d7612529565b5b60006129e684828501612776565b91505092915050565b600080fd5b60008083601f840112612a0a57612a096127cb565b5b8235905067ffffffffffffffff811115612a2757612a266129ef565b5b602083019150836001820283011115612a4357612a42612877565b5b9250929050565b60008060208385031215612a6157612a60612529565b5b600083013567ffffffffffffffff811115612a7f57612a7e61252e565b5b612a8b858286016129f4565b92509250509250929050565b6000819050919050565b612aaa81612a97565b82525050565b6000602082019050612ac56000830184612aa1565b92915050565b612ad4816126a0565b82525050565b6000602082019050612aef6000830184612acb565b92915050565b600080fd5b600067ffffffffffffffff821115612b1557612b146127d0565b5b612b1e82612634565b9050602081019050919050565b82818337600083830152505050565b6000612b4d612b4884612afa565b612830565b905082815260208101848484011115612b6957612b68612af5565b5b612b74848285612b2b565b509392505050565b600082601f830112612b9157612b906127cb565b5b8135612ba1848260208601612b3a565b91505092915050565b600060208284031215612bc057612bbf612529565b5b600082013567ffffffffffffffff811115612bde57612bdd61252e565b5b612bea84828501612b7c565b91505092915050565b600081519050919050565b600082825260208201905092915050565b6000612c1a82612bf3565b612c248185612bfe565b9350612c3481856020860161260a565b612c3d81612634565b840191505092915050565b6000604082019050612c5d60008301856125c4565b8181036020830152612c6f8184612c0f565b90509392505050565b612c81816125b8565b8114612c8c57600080fd5b50565b600081359050612c9e81612c78565b92915050565b60008060408385031215612cbb57612cba612529565b5b6000612cc985828601612776565b9250506020612cda85828601612c8f565b9150509250929050565b60008060008060808587031215612cfe57612cfd612529565b5b6000612d0c87828801612776565b9450506020612d1d87828801612776565b9350506040612d2e878288016126c1565b925050606085013567ffffffffffffffff811115612d4f57612d4e61252e565b5b612d5b87828801612b7c565b91505092959194509250565b612d70816126a0565b82525050565b612d7f816125b8565b82525050565b606082016000820151612d9b6000850182612d67565b506020820151612dae6020850182612d67565b506040820151612dc16040850182612d76565b50505050565b6000606082019050612ddc6000830184612d85565b92915050565b60008060408385031215612df957612df8612529565b5b6000612e0785828601612776565b9250506020612e1885828601612776565b9150509250929050565b7f4e487b7100000000000000000000000000000000000000000000000000000000600052602260045260246000fd5b60006002820490506001821680612e6957607f821691505b602082108103612e7c57612e7b612e22565b5b50919050565b7f4552433732313a20617070726f76616c20746f2063757272656e74206f776e6560008201527f7200000000000000000000000000000000000000000000000000000000000000602082015250565b6000612ede6021836125f9565b9150612ee982612e82565b604082019050919050565b60006020820190508181036000830152612f0d81612ed1565b9050919050565b7f4552433732313a20617070726f76652063616c6c6572206973206e6f7420746f60008201527f6b656e206f776e6572206f7220617070726f76656420666f7220616c6c000000602082015250565b6000612f70603d836125f9565b9150612f7b82612f14565b604082019050919050565b60006020820190508181036000830152612f9f81612f63565b9050919050565b6000604082019050612fbb6000830185612735565b612fc86020830184612735565b9392505050565b7f4552433732313a2063616c6c6572206973206e6f7420746f6b656e206f776e6560008201527f72206f7220617070726f76656400000000000000000000000000000000000000602082015250565b600061302b602d836125f9565b915061303682612fcf565b604082019050919050565b6000602082019050818103600083015261305a8161301e565b9050919050565b7f644e46543a204d617820737570706c79206c696d697420686173206265656e2060008201527f726561636865642e000000000000000000000000000000000000000000000000602082015250565b60006130bd6028836125f9565b91506130c882613061565b604082019050919050565b600060208201905081810360008301526130ec816130b0565b9050919050565b600060ff82169050919050565b613109816130f3565b811461311457600080fd5b50565b60008151905061312681613100565b92915050565b60006020828403121561314257613141612529565b5b600061315084828501613117565b91505092915050565b7f4e487b7100000000000000000000000000000000000000000000000000000000600052601160045260246000fd5b60008160011c9050919050565b6000808291508390505b60018511156131df578086048111156131bb576131ba613159565b5b60018516156131ca5780820291505b80810290506131d885613188565b945061319f565b94509492505050565b6000826131f857600190506132b4565b8161320657600090506132b4565b816001811461321c576002811461322657613255565b60019150506132b4565b60ff84111561323857613237613159565b5b8360020a91508482111561324f5761324e613159565b5b506132b4565b5060208310610133831016604e8410600b841016171561328a5782820a90508381111561328557613284613159565b5b6132b4565b6132978484846001613195565b925090508184048111156132ae576132ad613159565b5b81810290505b9392505050565b60006132c6826126a0565b91506132d1836130f3565b92506132fe7fffffffffffffffffffffffffffffffffffffffffffffffffffffffffffffffff84846131e8565b905092915050565b6000613311826126a0565b915061331c836126a0565b925082820261332a816126a0565b9150828204841483151761334157613340613159565b5b5092915050565b600081519050613357816126aa565b92915050565b60006020828403121561337357613372612529565b5b600061338184828501613348565b91505092915050565b7f644e46543a2055736572206d75737420686176652061746c656173742031204360008201527f4849432e00000000000000000000000000000000000000000000000000000000602082015250565b60006133e66024836125f9565b91506133f18261338a565b604082019050919050565b60006020820190508181036000830152613415816133d9565b9050919050565b6000819050919050565b613437613432826126a0565b61341c565b82525050565b60008160601b9050919050565b60006134558261343d565b9050919050565b60006134678261344a565b9050919050565b61347f61347a82612723565b61345c565b82525050565b60006134918288613426565b6020820191506134a18287613426565b6020820191506134b18286613426565b6020820191506134c18285613426565b6020820191506134d1828461346e565b6014820191508190509695505050505050565b7f4e487b7100000000000000000000000000000000000000000000000000000000600052601260045260246000fd5b600061351e826126a0565b9150613529836126a0565b925082613539576135386134e4565b5b828206905092915050565b600061354f826126a0565b915061355a836126a0565b92508261356a576135696134e4565b5b828204905092915050565b6000819050919050565b61358881613575565b82525050565b600067ffffffffffffffff82169050919050565b6135ab8161358e565b82525050565b600061ffff82169050919050565b6135c8816135b1565b82525050565b600063ffffffff82169050919050565b6135e7816135ce565b82525050565b600060a082019050613602600083018861357f565b61360f60208301876135a2565b61361c60408301866135bf565b61362960608301856135de565b61363660808301846135de565b9695505050505050565b600061364b826126a0565b9150613656836126a0565b925082820390508181111561366e5761366d613159565b5b92915050565b7f43686963426f784e46543a20546f6b656e207769746820737570706c6965642060008201527f696420646f65736e27742065786973742e000000000000000000000000000000602082015250565b60006136d06031836125f9565b91506136db82613674565b604082019050919050565b600060208201905081810360008301526136ff816136c3565b9050919050565b7f43686963426f784e46543a20546f6b656e2068617320616c726561647920726560008201527f6163686564206d6178206c6576656c2e00000000000000000000000000000000602082015250565b60006137626030836125f9565b915061376d82613706565b604082019050919050565b6000602082019050818103600083015261379181613755565b9050919050565b60006137a3826126a0565b91506137ae836126a0565b92508282019050808211156137c6576137c5613159565b5b92915050565b7f4552433732313a20696e76616c696420746f6b656e2049440000000000000000600082015250565b60006138026018836125f9565b915061380d826137cc565b602082019050919050565b60006020820190508181036000830152613831816137f5565b9050919050565b7f4552433732313a2061646472657373207a65726f206973206e6f74206120766160008201527f6c6964206f776e65720000000000000000000000000000000000000000000000602082015250565b60006138946029836125f9565b915061389f82613838565b604082019050919050565b600060208201905081810360008301526138c381613887565b9050919050565b7f43686963426f784e46543a2055706b65657020696e74657276616c2063616e6e60008201527f6f74206265206c657373207468616e203330207365636f6e6473000000000000602082015250565b6000613926603a836125f9565b9150613931826138ca565b604082019050919050565b6000602082019050818103600083015261395581613919565b9050919050565b7f4e487b7100000000000000000000000000000000000000000000000000000000600052603260045260246000fd5b7f4f776e61626c653a206e6577206f776e657220697320746865207a65726f206160008201527f6464726573730000000000000000000000000000000000000000000000000000602082015250565b60006139e76026836125f9565b91506139f28261398b565b604082019050919050565b60006020820190508181036000830152613a16816139da565b9050919050565b7f4552433732313a207472616e736665722066726f6d20696e636f72726563742060008201527f6f776e6572000000000000000000000000000000000000000000000000000000602082015250565b6000613a796025836125f9565b9150613a8482613a1d565b604082019050919050565b60006020820190508181036000830152613aa881613a6c565b9050919050565b7f4552433732313a207472616e7366657220746f20746865207a65726f2061646460008201527f7265737300000000000000000000000000000000000000000000000000000000602082015250565b6000613b0b6024836125f9565b9150613b1682613aaf565b604082019050919050565b60006020820190508181036000830152613b3a81613afe565b9050919050565b7f4f776e61626c653a2063616c6c6572206973206e6f7420746865206f776e6572600082015250565b6000613b776020836125f9565b9150613b8282613b41565b602082019050919050565b60006020820190508181036000830152613ba681613b6a565b9050919050565b7f4552433732313a20617070726f766520746f2063616c6c657200000000000000600082015250565b6000613be36019836125f9565b9150613bee82613bad565b602082019050919050565b60006020820190508181036000830152613c1281613bd6565b9050919050565b7f4552433732313a207472616e7366657220746f206e6f6e20455243373231526560008201527f63656976657220696d706c656d656e7465720000000000000000000000000000602082015250565b6000613c756032836125f9565b9150613c8082613c19565b604082019050919050565b60006020820190508181036000830152613ca481613c68565b9050919050565b6000608082019050613cc06000830187612735565b613ccd6020830186612735565b613cda6040830185612acb565b8181036060830152613cec8184612c0f565b905095945050505050565b600081519050613d068161255f565b92915050565b600060208284031215613d2257613d21612529565b5b6000613d3084828501613cf7565b91505092915050565b7f4552433732313a206d696e7420746f20746865207a65726f2061646472657373600082015250565b6000613d6f6020836125f9565b9150613d7a82613d39565b602082019050919050565b60006020820190508181036000830152613d9e81613d62565b9050919050565b7f4552433732313a20746f6b656e20616c7265616479206d696e74656400000000600082015250565b6000613ddb601c836125f9565b9150613de682613da5565b602082019050919050565b60006020820190508181036000830152613e0a81613dce565b905091905056fea26469706673582212201e53e4420a27c1288b9f0161434c573a8bb2bfb13fd99c7d13e9ff1799ee0db964736f6c6343000812003368747470733a2f2f697066732e696f2f697066732f516d64714a6f76626d3331724b6359766d315779464d5155674e71753559357857356b664c4b51593152534570792f312e6a736f6e68747470733a2f2f697066732e696f2f697066732f516d64714a6f76626d3331724b6359766d315779464d5155674e71753559357857356b664c4b51593152534570792f322e6a736f6e68747470733a2f2f697066732e696f2f697066732f516d64714a6f76626d3331724b6359766d315779464d5155674e71753559357857356b664c4b51593152534570792f332e6a736f6e68747470733a2f2f697066732e696f2f697066732f516d64714a6f76626d3331724b6359766d315779464d5155674e71753559357857356b664c4b51593152534570792f302e6a736f6e",
  "linkReferences": {},
  "deployedLinkReferences": {}
}